:030000000223E0F8
:0C23E000787FE4F6D8FD75812002239878
:1023B600322E3220696E63682054465420323430FF
:0523C6002A3332300053
:10233C0074FF90002EF0A3F090002C74F8F0A3E43E
:10234C00F0FBFDFC7F0AFE121E747B01E4FDFC7F9A
:10235C002DFE121E747BFF7A2379B67D1E7C007FC6
:06236C000A7E00021FE8DA
:101C8A0012233C900004E4F0A37402F0E4900002F2
:101C9A00F0A3F0900002E0FAA3E0FB7C007D28FFAD
:101CAA00AE02121975C006C007A3E0FEA3E0FF1238
:101CBA001975C006C007AF03AE02121975EF2427C3
:101CCA00FBE43EFA900004E0FEA3E0FF121975EF70
:101CDA002427FFE43E90002AF0A3EFF0D005D004B9
:101CEA00D007D00612226CE4900000F0A3F0900016
:101CFA0000E0FEA3E0FFC39440EE64809486504463
:101D0A00EF25E0FFEE33FE74042FF58274003EF5F2
:101D1A0083E493FF1223FA900001E025E0FF90008C
:101D2A0000E033FE74032FF58274003EF583E493DA
:101D3A00FF1223FA900001E004F070B2900000E074
:101D4A0004F080AA900003E004F07006900002E01C
:101D5A0004F0C3900003E09406900002E0648094CB
:101D6A00805003021C9D900005E004F0700690006C
:101D7A0004E004F0C3900005E09408900004E064D5
:081D8A008094805003021C96B6
:011D9200222E
:1023980012137374FFFFFE1222B3E490002EF0A311
:0E23A800F074FF90002CF0A3F0121C8A80FE4F
:022404002000B6
:1022F9008F20A2079295C297D297A2069295C2976C
:10230900D297A2059295C297D297A2049295C297A5
:10231900D297A2039295C297D297A2029295C29799
:10232900D297A2019295C297D297A2009295C2978D
:03233900D2972216
:0423F6001223FFFFB0
:0523FA00D2820222F96D
:0523CB00E0FEA3E0FFAD
:1023D000AD07AC06D282ECFF1222F9AF050222F95A
:0523FF00C2820222F978
:0A23EC001223FFAE04AF050223D058
:10226C00900024EEF0A3EFF07F2A1223FF900024BD
:10227C00E0FF1223FAA3E0FF1223FAEAFF1223FA7B
:10228C00AF031223FA7F2B1223FFECFF1223FAAFBA
:10229C00051223FA90002AE0FF1223FAA3E0FF12A2
:0722AC0023FA7F2C0223FF3F
:10137300D28020805BE4FDFCFFFE1223EC7BFF7A2E
:10138300247904E4FDFCFFFE121FE8900004121A06
:10139300C600000000E4900008F0FDFCFFFE121DF3
:1013A30093E4900006F0FBFAFDFCFFFE12207CE4C0
:1013B300FDFCFFFE1221D7E4900006F0A3F0FBFA38
:1013C300FDFCFFFE121F3EE4FBFDFCFFFE12157A3F
:1013D300D2817F057E00122372C2817F057E0012B7
:1013E3002372D281D2807F057E00122372C2807F56
:1013F300CB1223FF7F391223FA7F2C1223FAE4FF47
:101403001223FA7F341223FA7F021223FA7FCF12B8
:1014130023F67FC11223FA7F301223FA7FE81223C7
:10142300FF7F851223FAFF1223FA7F781223FA7FB4
:10143300EA1223F61223FA7FED1223FF7F641223AD
:10144300FA7F031223FA7F121223FA7F811223FAFF
:101453007FF71223FF7F201223FA7FC01223FF7F1F
:10146300231223FA7FC11223FF7F101223FA7FC5B1
:101473001223FF7F3E1223FA7F281223FA7FC7121B
:1014830023FF7F861223FA7F361223FF7F4812231E
:10149300FA7F3A1223FF7F551223FA7FB11223F604
:1014A3007F181223FA7FB61223FF7F081223FA7FD5
:1014B300821223FA7F271223FA7FF21223F67F2662
:1014C3001223FF7F011223FA7FE01223FF7F0F1203
:1014D30023FA7F311223FA7F2B1223FA7F0C122374
:1014E300FA7F0E1223FA7F081223FA7F4E1223FA91
:1014F3007FF11223FA7F371223FA7F071223FA7F31
:10150300101223FA7F031223FA7F0E1223FA7F09A4
:101513001223FAFF1223FA7FE11223F67F0E12231E
:10152300FA7F141223FA7F031223FA7F111223FA8C
:101533007F071223FA7F311223FA7FC11223FA7F26
:10154300481223FA7F081223FA7F0F1223FA7F0C23
:101553001223FA7F311223FA7F361223FA7F0F12F6
:1015630023FA7F111223FF7F78FE1223727F291241
:0715730023FF7F2C0223FF80
:0222B300AC0677
:1022B500EC900000F0A90790002A7401F0A3743F88
:1022C500F07BEF7A00E4FDFCFFFE12226CE4FBFAE2
:1022D500900000E0FF1223FAAF011223FA0BBB00B6
:1022E500010ABA01EBBB40E80DBD00010CED64F03D
:0322F5004C70DA50
:0122F80022C3
:101E7400900006EEF0A3EFF090000AEBF09000085B
:051E8400ECF0A3EDF0FD
:101E890090000D74FFF0A3740CF0A37483F090001C
:101E990006E0FAA3E0FFAE02C006C007241FFBE478
:101EA9003AFAA3E0FEA3E0241FFFE43E90002AF0E3
:101EB900A3EFF0D007D00612226C90000AE075F06B
:101EC90080A4FF90000EE5F08FF0121987E49000CE
:101ED9000CF0E490000BF090000BE0FFC394085065
:101EE9003D90000DE0FBA3E0FAA3E0F912195CFDB7
:101EF9007C0074017E00A807088005C333CE33CE69
:101F0900D8F9FFEE5CFEEF5D4E600590002C800372
:101F190090002E1223CB90000BE004F080B99000C2
:101F29000EE475F00112198790000CE004F0E0C38B
:041F39009480409EB2
:011F3D002281
:10218500900004E0FEA3E0FF900001E02FFF900027
:1021950000E03E900006FEE0FCA3E0FD900003E0B9
:0821A5002DFD900002E03CFC5E
:1021AD00AB07AA068D828C83C006C007AE83AF82B3
:1021BD0090002AEEF0A3EFF0D007D00612226C901B
:0A21CD00002CE0FEA3E0FF0223D087
:1021D700AB07AA068D828C83EB24FFFFEA34FFFE50
:1021E700C006C007E58224FFFDE58334FFFCEB242E
:1021F70001FBE43AFAAE83AF82EF2401FFE43E909D
:102207000006F0A3EFF090002CE0FFA3E090000899
:0C221700CFF0A3EFF0D007D006022104A6
:10210400900000EEF0A3EFF0A3ECF0A3EDF0A3EA4F
:04211400F0A3EBF059
:10211800C007A3E0FFA3E090002ACFF0A3EFF0D020
:102128000712226C900002E0FFA3E090000ACFF0B3
:10213800A3EFF0900006E0FEA3E0FFD390000BE0D1
:102148009F90000AE09E5034900000E0FEA3E0FB60
:10215800AA06C3900005E09B900004E09A400D9009
:1021680000081223CB0BBB00010A80E690000BE0AD
:0C21780004F070BF90000AE004F080B793
:012184002238
:0E177100900008EEF0A3EFF0A3ECF0A3EDF073
:10177F00E4900012F0A3F0A3F0A3F0900008E0FEB5
:10178F00A3E0FFC3EB9FFFEA9E900016F0A3EFF0DC
:10179F0090000AE0FAA3E0FBC390000FE09BFE90DD
:1017AF00000EE09A900018F0A3CEF0900008E0FF32
:1017BF00A3E0900020CFF0A3EFF0A3EAF0A3EBF0AB
:1017CF00900016E0FEA3E0FFD39400EE64809480B7
:1017DF00400A90001CE4F0A304F08021EF4E700843
:1017EF0090001CF0A3F0801574FF90001CF0A3F084
:1017FF00C3E49FFFE49E900016F0A3EFF090001853
:10180F00E0FEA3E0FFD39400EE64809480400A9042
:10181F00001EE4F0A304F08021EF4E700890001E2C
:10182F00F0A3F0801574FF90001EF0A3F0C3E49FA7
:10183F00FFE49E900018F0A3EFF0900018E0FEA3D5
:10184F00E0FF900016E0FCA3E0FDD39FEE6480F86C
:10185F00EC64809890001A4007ECF0A3EDF080053F
:10186F00EEF0A3EFF0E4900010F0A3F090001BE077
:10187F002401FF90001AE03400FED3900011E09F86
:10188F00900010E09E400302195B900020E0FEA341
:10189F00E0FFA3E0FCA3E0FD1221AD900016E0FEF7
:1018AF00A3E0FF900013E02FF0900012E03EF090C5
:1018BF000018E0FEA3E0FF900015E02FF090001459
:1018CF00E03EF090001AE0FEA3E0FF900012E0FC73
:1018DF00A3E0FDD39FEE6480F8EC6480984020ED88
:1018EF009FFFEC9E900012F0A3EFF090001CE0FE23
:1018FF00A3E0FF900021E02FF0900020E03EF09059
:10190F00001AE0FEA3E0FF900014E0FCA3E0FDD37B
:10191F009FEE6480F8EC6480984020ED9FFFEC9E72
:10192F00900014F0A3EFF090001EE0FEA3E0FF90F4
:10193F000023E02FF0900022E03EF0900011E00431
:0C194F00F07006900010E004F002187B1D
:01195B002269
:101F3E00900004EAF0A3EBF0900000EEF0A3EFF0B7
:101F4E00A3ECF0A3EDF0C007A3E0FAA3E0FB900032
:101F5E0002E0FFA3E090000ECFF0A3EFF0D0071247
:101F6E001771900000E0FAA3E0FBFFAE02C007A3DA
:101F7E00E0FCA3E0FD900006E0FFA3E090000ECF92
:101F8E00F0A3EFF0D007121771900006E0FCA3E06B
:101F9E00FD900004E0FAA3E0FBA3E0FFA3E09000B5
:101FAE000ECFF0A3EFF0900000E0FEA3E0FF1217BB
:101FBE0071900004E0FAA3E0FBFFAE02C0079000B0
:101FCE0002E0FCA3E0FD900006E0FFA3E090000E0F
:0A1FDE00CFF0A3EFF0D00702177157
:0E157A00900000EEF0A3EFF0A3ECF0A3EDF074
:10158800E4A3F0A3F0EBFF7E00A3EEF0A3EFF025B9
:10159800E0FFEE33FEC374039F900009F0E49E90D1
:1015A8000008F0900006E0FEA3E0FFD3900005E0FD
:1015B8009FEE6480F8900004E0648098400302176E
:1015C80070C3900001E09FFF900000E09EFE900035
:1015D80004E0FCA3E0FDC3900003E09DFD90000241
:1015E800E09CFC1221AD900006E0FEA3E0FF900015
:1015F80001E02FFF900000E03EFE900004E0FCA315
:10160800E0FDC3900003E09DFD900002E09CFC1209
:1016180021AD900004E0FEA3E0FFC3900001E09F2D
:10162800FF900000E09E122198900006E0FEA3E0E3
:10163800FFC3900001E09FFF900000E09EFE900035
:1016480004E0FCA3E0FDC3900003E09DFD900002D0
:10165800E09CFC1221AD900004E0FEA3E0FFC390E3
:101668000001E09FFF900000E09EFE900006E0FC75
:10167800A3E0FDC3900003E09DFD900002E09CFC08
:101688001221AD900006E0FEA3E0FF900001E02FDC
:10169800FF900000E03E90000412219B900004E0BF
:1016A800FEA3E0FF900001E02FFF900000E03EFE67
:1016B800900006E0FCA3E0FDC3900003E09DFD90D0
:1016C8000002E09CFC1221AD122185900006E0FE8C
:1016D800A3E0FFC3900001E09FFF900000E09EFEA2
:1016E80090000412219C900005E004F07006900020
:1016F80004E004F0C3900008E064809480502490D3
:101708000004E0FEA3E07802C333CE33CED8F92438
:1017180006FFE43EFE900009E02FF0900008E03E4E
:10172800F0803F900006E0FEA3E0FFC3900005E0D4
:101738009FFF900004E09EFEEF7802C333CE33CEC5
:10174800D8F9240AFFE43EFE900009E02FF090004B
:1017580008E03EF0900007E024FFF0900006E03437
:08176800FFF01221850215AB10
:011770002256
:101AF70090000DEEF0A3EFF0A3ECF0A3EDF0A3EB55
:011B0700F0ED
:101B080090000DE0FEA3E0FF900015EEF0A3EFF0CB
:101B180090002CE0FDA3E0900017CDF0A3EDF0D3EA
:101B2800EF94E0EE94004003021C8990000FE0FC63
:101B3800A3E0FD9430EC94014003021C899000114D
:101B4800E024E0F090000DE0FAA3E0FFAE02C0064A
:101B5800C0072407FBE43AFAA3E0FEA3E0240FFF42
:101B6800E43E90002AF0A3EFF0D007D00612226CD2
:101B7800900012E06003021C11F9900011E075F06A
:101B880010A4FFE97C002FFFEC35F0FE74832FF5DD
:101B980082740D3EF583E493900013F0E4A3F09073
:101BA8000013E030E005900017800390002EE0FF5E
:101BB800A3E090002CCFF0A3EFF090002C1223CBE1
:101BC800900013E0C313F090000EE004F07006904C
:101BD800000DE004F0900014E004F0E0C394084025
:101BE800BE900015E0FFA3E090000DCFF0A3EFF04A
:101BF800900010E004F0700690000FE004F009E98E
:101C080064106003021B828069E4F9900011E0759A
:101C1800F010A4FFE97C002FFFEC35F0FE74832F51
:101C2800F582740D3EF583E493900013F0E4A3F07D
:101C3800900014E0FFC394085033900013E030E0A4
:101C48001F90000EE02FFF90000DE03400FEE9FD2C
:101C5800900010E02DFD90000FE03400FC1221AD43
:101C6800900013E0C313F0A3E004F080C309E9B4C3
:101C78001099900017E0FFA3E090002CCFF0A3EF9D
:011C8800F06B
:011C89002238
:0822230090000CEFF0A3EDF0B8
:10222B00A3121AC60000000190000DE0FF14F0EF9E
:10223B006020A3E0F8A3E0F9A3E0FAA3E0FB900091
:10224B000CE0FFE4FCFDFE12199D90000E121ABA71
:10225B0080D690000EE0FCA3E0FDA3E0FEA3E0FF20
:01226B002250
:0E1D9300900000EEF0A3EFF0A3ECF0A3EDF053
:101DA100E490000BF0900004A3A3E0FEA3E0FFE4A5
:101DB100FCFD900004121ABAE4900009F0900008AA
:101DC100E0FFA3E0FEC39F4003021E73C3EF9E1416
:101DD100FD7F0A122223A804A905AA06AB079000D9
:101DE10004E0FCA3E0FDA3E0FEA3E0FF121A28E457
:101DF1007B0AFAF9F8121A2890000AEBF0A3E070B6
:101E01003B900008E014FFA3E0FEC39F502EA3E027
:101E11007024EE75F008A4FF900001E02FFF900000
:101E210000E035F0FE900002E0FCA3E0FDE490004C
:101E310012F07B20803090000B7401F0900009E0DB
:101E410075F008A4FF900001E02FFF900000E0353D
:101E5100F0FE900002E0FCA3E0FD90000AE02430D7
:101E6100FBE4900012F0121AF7900009E004F0026E
:021E71001DBE94
:011E7300224C
:10207C00900000EEF0A3EFF0A3ECF0A3EDF0A3EAD8
:04208C00F0A3EBF0E2
:10209000E4900007F0900006E0F9A3E0FFC3995038
:1020A00062C3E99F14FD7F0A122223A804A905AA8E
:1020B00006AB07900004E0FEA3E0FFE4FCFD121A6B
:1020C00028E47B0AFAF9F8121A28AF03900008EF07
:1020D000F0900007E075F008A4FF900001E02FFFEA
:1020E000900000E035F0FE900002E0FCA3E0FDEB84
:1020F0002430FBE4900012F0121AF7900007E0047D
:03210000F08092DA
:0121030022B9
:101FE800900006EEF0A3EFF0A3ECF0A3EDF0A3EB66
:101FF800F0A3EAF0A3E9F090000AE0FBA3E0FAA35B
:10200800E0F912195CFB606BD3900007E094E09054
:102018000006E094004012E4F0A3F0900009E024E8
:1020280010F0900008E03400F0D3900009E09430FC
:10203800900008E09401400BE4900006F0A3F0A3A0
:10204800F0A3F0900006E0FEA3E0FFA3E0FCA3E00D
:10205800FDE4900012F0121AF7900007E02408F04F
:10206800900006E03400F090000BE475F0011219BE
:0420780087808422B7
:10237200E4FDFCC3ED9FEE6480F8EC648098501598
:10238200E4FBFA0BBB00010ABA03F8BBE8F50DBD8A
:0523920000010C80DEDB
:012397002223
:10000300FFFFFFFFFFFFFFFFFFFFFFFFFFFFFFFFFD
:10001300FFFFFFFFFFFFFFFFFFFFFFFFBEF77DEFC8
:10002300BAD6B6B5F39CB294B39CB29434A5F7BDDB
:10003300FBDE7DEFFFFFFFFFFFFFFFFFFFFFFFFF84
:10004300FFFFFFFFFFFFFFFFFFFFFFFFFFFFFFFFBD
:10005300FFFFFFFFFFFFFFFFFFFFFFFFFFFFFFFFAD
:10006300FFFFFFFFFFFFFFFFBEF7FBDEF39CCB5A53
:10007300C7390421821042104210410883184529D0
:10008300C7390C6375AD3CE7BEF7FFFFFFFFFFFF0A
:10009300FFFFFFFFFFFFFFFFFFFFFFFFFFFFFFFF6D
:1000A300FFFFFFFFFFFFFFFFFFFFFFFFFFFFFFFF5D
:1000B300FFFFFFFFFFFF3CE7B2940842C318821023
:1000C300042145298631863186318631452904212B
:1000D30082104108C3180842F39C3CE7FFFFFFFF6F
:1000E300FFFFFFFFFFFFFFFFFFFFFFFFFFFFFFFF1D
:1000F300FFFFFFFFFFFFFFFFFFFFFFFFFFFFFFFF0D
:10010300FFFFFFFFFBDE0C63C318C3184529C73984
:10011300084208420842084208420842C739C73920
:1001230086318631042141088210CB5ABAD6FFFFAB
:10013300FFFFFFFFFFFFFFFFFFFFFFFFFFFFFFFFCC
:10014300FFFFFFFFFFFFFFFFFFFFFFFFFFFFFFFFBC
:10015300FFFFFBDECB5A82104529C739084208420C
:10016300094A494A494A494A494A494A0842C73910
:10017300C739C7398631452983180000C84138C6B5
:10018300FFFFFFFFFFFFFFFFFFFFFFFFFFFFFFFF7C
:10019300FFFFFFFFFFFFFFFFFFFFFFFFFFFFFFFF6C
:1001A3007DEF8E7382104529C7390842094A8A5266
:1001B3003084CF7B8A52494A4A52494ACB5ACF7B31
:1001C3000C630842C73986314529C3180000494AE0
:1001D300BAD6FFFFFFFFFFFFFFFFFFFFFFFFFFFF9A
:1001E300FFFFFFFFFFFFFFFFFFFFFFFFFFFFFFFF1C
:1001F300F39CC3180421C7390842494A494A7294F7
:100203007DEF7DEFB2944A52494A8A5275ADBEF7EB
:10021300BAD64D6BC739C73986314529C31841084A
:10022300CF7B7CE7FFFFFFFFFFFFFFFFFFFFFFFF2A
:10023300FFFFFFFFFFFFFFFFFFFFFFFFFFFFBAD639
:1002430008428210C7390842494A494A8E73FBDE85
:10025300FFFFBEF7BAD68E73084230843CE77DEFCA
:10026300FFFFB6B5494AC7398631452904214108FC
:100273004529B6B5FFFFFFFFFFFFFFFFFFFFFFFFAE
:10028300FFFFFFFFFFFFFFFFFFFFFFFFBEF7718CC5
:10029300410845290842494A494A4A52B294BEF79D
:1002A300BEF7B294CF7BCF7B494AB6B5F39C0C63C0
:1002B30038C6BAD60C638739C73986314529C3187E
:1002C300410830847DEFFFFFFFFFFFFFFFFFFFFFCC
:1002D300FFFFFFFFFFFFFFFFFFFFFFFF3CE7CB5ADF
:1002E3004108C7390842494A4A528A52F39CFFFFE0
:1002F3007DEFC739C3180C63CB5AB6B5B294CB5A4A
:1003030075ADFAD64D6B8739C73986314529042136
:1003130041088A5279CEFFFFFFFFFFFFFFFFFFFF78
:10032300FFFFFFFFFFFFFFFFFFFFFFFF38C6863121
:100333000421C841494A494A4A52494AB18CBEF745
:10034300BEF7B294CF7BCF7B494A74A57DEF7CE7A0
:10035300BEF779CE0C63C739C739863145290421E5
:100363008210452975ADBEF7FFFFFFFFFFFFFFFFBB
:10037300FFFFFFFFFFFFFFFFFFFFFFFF34A582101B
:1003830086310842494A494A8A52494A4D6BBAD68C
:10039300FFFFFFFF79CE0D63C739CF7B7DEFFFFFF3
:1003A300FFFF75AD08428631C73986314529452996
:1003B300C318C318B2947DEFFFFFFFFFFFFFFFFFDA
:1003C300FFFFFFFFFFFFFFFFFFFFBEF7B28C4108F8
:1003D300C7390842494A494A8A528A524A4AD07B13
:1003E3007AC67BBE906BC9398831C939B384BBC621
:1003F300F8B5CC5A8631C739C739863145294529DD
:10040300C420410830843CE7FFFFFFFFFFFFFFFFED
:10041300FFFFFFFFFFFFFFFFFFFF3CE78A4AC31019
:10042300C7390842494A494A4A4A4A42093A084AA4
:10043300096B497BC67A05834683C57AC672097BF5
:10044300485A8731882188298631863145294529AB
:10045300042141084A4ABAD6FFFFFFFFFFFFFFFF0F
:10046300FFFFFFFFFFFFFFFFFFFFF7C582500541BF
:10047300C7290842494A4A42494A097B889BC6B36D
:1004830021D4A0DCE1E461ED61ED21EDA0E420DC09
:1004930080CB43ABC482065A472146294529042908
:1004A300041982108218F39C7DEFFFFFFFFFFFFF0B
:1004B300FFFFFFFFFFFFFFFF7DEF4D9300A082B81B
:1004C300C7310932494A867A43C36BEDF4F6EBFD33
:1004D30020FD20FD60FDA0FDA0FD60FD60FD20FD71
:1004E300E0FCA0FC60F4C1DB839AC54945290419EB
:1004F300C42082380050CB6ABAD6FFFFFFFFFFFF4C
:10050300FFFFFFFFFFFFFFFFFBEE04A100C000F0B2
:10051300C3A0C8414942059B20FCA4FC69FDE8FD3A
:1005230063FD20FD60FD60FD60FD20FD20FDE0FC1E
:10053300E0FCA0FC60FC20FC41D3C5494519C4384C
:10054300826841880070495A79CEFFFFFFFFFFFFA1
:10055300FFFFFFFFFFFFFFFFFBF682C000D086C156
:1005630046F141C8457989528862866AC67AC4BB16
:10057300E1FC60FD60FDA0FDA0FD60FD60FDE0FC11
:1005830060E403938472446AC5414529C35841A872
:10059300409800B000600C6B79CEFFFFFFFFFFFFB8
:1005A300FFFFFFFFFFFF7DEFCE83828800F8C4D8F3
:1005B3000CF38AFA82E882B04569C7510842083AC7
:1005C300865A839BA2BC22CD21CDA1C422B4C47A76
:1005D300063A862945290531C450419000C000A838
:1005E30000A000A800304A4ABAD6FFFFFFFFFFFF72
:1005F300FFFFFFFF7DEF8E73C318053982A800F854
:10060300C3F84DFB4DFBC7F9C3F082D8C3B00481D7
:1006130045614651864986494641454145414541E3
:1006230005490461829041B000D000C800A800A829
:1006330000B8415882108210B294BEF7FFFFFFFF4B
:10064300FFFFBEF7CF7B82100421862986410499E0
:1006530040E841F886F9CBFA49FA82F800F800F04D
:1006630000E841D841D041C041C041C041C041C868
:1006730000D000E000E000D800D000B800A8418816
:100683008248821082100000452979CEFFFFFFFFC8
:10069300BEF7F39C8210C31845298631C731307CDD
:1006A300F3DC86E100F000F841F841F800F800F8C7
:1006B30000F800F800F800F800F800F800F800F877
:1006C30000E800E000E000D800C841A08A9A0C636B
:1006D300041182108210410800004D6B7DEFFFFF73
:1006E300FBDE08424210452986318631494A38BE2D
:1006F300FFFF38D686A900C800E000F000F800F834
:1007030000F800F800F800F800F800F800F000F036
:1007130000E800E000D0C3988A8AB2A4BAC6F7B54D
:10072300084241088210410800004529F7BDFFFF38
:10073300718C410804214529863186310C633CE7DD
:10074300FFFF79D646B900E042C882A882B041D8FB
:1007530082E882F041E841E841E841F041E841D8CC
:1007630004C108924D8B34A5FBC6FBD6BACE3CE739
:100773003084C3184108410800004108CF7B7DEF56
:10078300494A000004214529463186313084FFFF60
:10079300FFF7F7DD09DA83F801F042C08298499A3E
:1007A300F3B4F3CC71BC8EBB8EBB30BC71BCF3BC59
:1007B300B6BDFBCEBEE77DE73BDFBAD679CEFBDE27
:1007C30075AD86314108410800000000494AFBDE4F
:1007D300042141080421452945298739B294FFFFA3
:1007E300BEF734DD0CEB09FA00F001D800D88BD248
:1007F3007DE7FFFFFFFFFFFFFFFFFFFFFFFFFFFFA0
:10080300FFFFBEFF7DEFFBDEFBDEBAD679CEBAD6A5
:1008130078C6C7390000410800000000C73979CE07
:1008230000008210C318042105298631B39CFFFF01
:10083300FFF775DDC7E9C7F901F801F000E849E200
:10084300FBEEFFFFFFFFFFFFFFFFFFFFFFFFFFFFCA
:10085300FFFFBEF77DEFFBDEFBDEBAD679CEBAD65D
:10086300B9CE08420000000000000000C73938C6B6
:100873000000821082100421042145293084FFFFE7
:10088300FFFF38DEC4D000F001F800F800F008D212
:10089300FBE6FFFFFFFFFFFFFFFFFFFFFFFFFFFF82
:1008A300FFFFBEF77DEFFBDEBAD679CE79CEBAD69F
:1008B30079CEC7394108000000000000863138C6F0
:1008C30000000000C318CB5A8631C318CB5A7DEF02
:1008D300FFFF7DEFCFBBC3B041D041D082B84DB352
:1008E3007DE7FFFFFFFFFFFFFFFFFFFFFFFFFFFFAF
:1008F300BEF7BEF73DEFFBDEBAD679CE79CEFAD698
:10090300F7BD04218631042100000000863138C67A
:100913008631C318CB5A75ADCF7B41088631F7BDFD
:10092300FFFFFFFFBEEF74B5309C309C72A4BBD6B3
:10093300FFFFFFFFFFFFFFFFFFFFFFFFFFFFFFFFC4
:10094300BEF77DEF3CE7FBDEBAD679CE79CE3CE746
:10095300718C81080C63CF7B821000008A5238C6E9
:1009630075AD718CB6B53CE7FBDEC7390000CF73BC
:10097300FFFFFFFFFFFFFFFFFFFFFFFFFFFFFFFF84
:10098300FFFFFFFFFFFFFFFFFFFFFFFFFFFFBEF7BD
:100993007DEF7DEF3BDFFAD679CE79CEFBDEB9CEA4
:1009A300C739C420718CBAD6718CCB5AB294BAD6DB
:1009B300FFFF7DEF7DEFFFFFFFFFB6B5462905196A
:1009C30075A5FFFFFFFFFFFFFFFFFFFFFFFFFFFF18
:1009D300FFFFFFFFFFFFFFFFFFFFFFFFFFFFBEF76D
:1009E3007DEF3CE7FBDEBAD679CEBAD6FCDE4E63AA
:1009F30042080C63F7BDBEF7FFFFFBDEFBDEBEF76D
:100A0300FFFFFFFFFFFFFFFFFFFFFFFFF49C04213A
:100A13000521B6A5FFFFFFFFFFFFFFFFFFFFFFFF5E
:100A2300FFFFFFFFFFFFFFFFFFFFBEF7BEF77DEFF7
:100A33003CE7FBDEBAD679CEFBDEBBD6D173831897
:100A43008639349DBDEFFFFFFFFFFFFFFFFFFFFF71
:100A5300FFFFFFFFFFFFFFFFBEFF35D6EBCC43B326
:100A630040510519F58CBEEFFFFFFFFFFFFFFFFFAE
:100A7300FFFFFFFFFFFFBEF7BEF77DEF7DEF3CE714
:100A8300FBDEBADEBAD63CDF3ABE4F63824940A3EF
:100A930023B4CC833ABEFFFFFFFFFFFFFFFFFFFF3F
:100AA300FFFFFFFFFFFFBFF7B5BD829220F4A0FC5D
:100AB30060E4408284418F6B77AD3DE7FFFFFFFF2A
:100AC300FEFFBEF7BEF7BEF77DEF7DEF3CE7FBDE33
:100AD300FBDE3DE7BBCE369D0B6B416A60C420FE57
:100AE30060F5008BC76A38C6BEF7FFFFFFFFFFFF45
:100AF300FFFFFFFFFFFF7DEF4B7B80B2A0FCA0FC5D
:100B0300E0FCE0FCC0CBC18A45624D6BB394F7BDFA
:100B13003DDFFFF7FFFFBEF77DEF7DEF7DE73DDFB5
:100B2300BAC675A58D7B847A40B3E0ECE0FDE0FDA9
:100B330060F520E5A0D40A6BFBDEFFFFFFFFFFFF9C
:100B4300FFFFFFFFFFFF7DEFCC9340EB60FCA0FCBA
:100B5300E0FC20FD60FD20F5A0D4C0BB429B458B8B
:100B63006B9CAE9C718CB394339D34A5F2A4F0B40A
:100B7300CA9B049B40BB20E420FDA0FDA0FDE0FD3B
:100B8300E0FDE0FD20C4885A38BEFFFFFFFFFFFFF2
:100B9300FFFFFFFFFFFFFFFF78D646AB40DB20F4EC
:100BA30060FCA0FCE0FC60FDA0FD60FD20F5A0DC86
:100BB300C0B3C05186290D638F7B0D5BC741018292
:100BC30000C3C0E360FCA0FCE0FCE0FC60F560F562
:100BD30020E5809B8662308479CEFFFFFFFFFFFF15
:100BE300FFFFFFFFFFFFFFFFFFFF38C62D9C0593AD
:100BF30043A382B3C2BBC2BB22B482A34293C37AD0
:100C030085620B637184B6B579CE79C6B5AD709440
:100C13004A8B06830493049B439B439B4393048324
:100C230008738D73B39479CE7DEFFFFFFFFFFFFF52
:100C3300FFFFFFFFFFFFFFFFFFFFFFFF3CDF38BEAC
:100C430075B533A533A5F39CF39CF39CF394F39C04
:100C530035A5F8BDFBDEBEF7FFFFFFFFFFFF7EEF0D
:100C6300BBD6F8BDB6AD75AD34A5339D349D35A562
:100C7300B7AD79C63CE7BEF7FFFFFFFFFFFFFFFFFE
:100C830000000000000000000000800000FEFF01E3
:100C930000FEFF010006C0000006C0000006C00001
:100CA30000FEFF000006C0000006C0000006C000F2
:100CB30000FEFF000006C0000006C00000020000A6
:100CC30030300C1CF07FFC3F30300C1C30300C1CDF
:100CD30030300C1C30300C1CF03FFC1F30300C1C2F
:100CE30030300C1C30300C1C30300C1CF03FFC1F1F
:100CF300F03FFC1F30300C1C3010040C00000000CF
:100D03000000000000000000C0000808C0F1FF1F41
:100D1300C0F0FF1FC0484C1CC4DCCC1DCCDC8D1DB7
:100D2300DC8E8D1DD8060E1FF8C3EF1DF8F1EC1CE9
:100D3300D0601D1CC01C770CFE9FE7003483E30CBE
:100D430030C3FF1F30C3610030E3610030E361064D
:100D530030F3FF0F30DB610030FB610438DB610EE1
:100D630018CFFF0F18C7610098C761000CC3613823
:100D730004C2FF3F06C0010002C0010000000000E2
:100D83000000000000000000000000000000000060
:100D930000000008080808080808000018180000E8
:100DA30000486C2412000000000000000000000056
:100DB3000000002424247F1212127F12121200005A
:100DC3000000081C2A2A0A0C1828282A2A1C0808AA
:100DD30000000022251515152A58545454220000EA
:100DE3000000000C1212120A76252911916E0000E0
:100DF30000060604030000000000000000000000DD
:100E030000402010100808080808081010204000AF
:100E13000002040808101010101010080804020043
:100E23000000000008086B1C1C6B08080000000091
:100E330000000000080808087F08080808000000F0
:100E4300000000000000000000000000060604038C
:100E53000000000000000000FE0000000000000091
:100E63000000000000000000000000000606000073
:100E730000008040402020101008080404020200F3
:100E83000000001824424242424242422418000019
:100E9300000000080E08080808080808083E0000BB
:100EA3000000003C4242422020100804427E000021
:100EB3000000003C4242201820404042221C000017
:100EC300000000203028242422227E2020780000E5
:100ED3000000007E0202021A26404042221C00004B
:100EE300000000382402021A26424242241800005D
:100EF3000000007E222210100808080808080000DD
:100F03000000003C4242422418244242423C00007A
:100F1300000000182442424264584040241C000050
:100F2300000000000000181800000000181800005E
:100F33000000000000000008000000000008080492
:100F430000000040201008040204081020400000A4
:100F53000000000000007F0000007F000000000090
:100F630000000002040810204020100804020000C2
:100F73000000003C424246402010100018180000B8
:100F83000000001C225A555555552D42221C0000C5
:100F93000000000808181414243C224242E7000011
:100FA3000000001F2222221E22424242221F000072
:100FB3000000007C4242010101010142221C0000A9
:100FC3000000001F2242424242424242221F0000CE
:100FD3000000003F4212121E12120242423F000062
:100FE3000000003F4212121E12120202020700000A
:100FF3000000003C2222010101712122221C000079
:10100300000000E7424242427E42424242E7000081
:101013000000003E0808080808080808083E000009
:101023000000007C10101010101010101010110F81
:101033000000007722120A0E0A1212222277000001
:10104300000000070202020202020202427F0000C5
:1010530000000077363636362A2A2A2A2A6B000001
:10106300000000E346464A4A525252626247000079
:101073000000001C2241414141414141221C00002A
:101083000000003F424242423E02020202070000C9
:101093000000001C2241414141414D53321C60007C
:1010A3000000003F4242423E1212222242C7000089
:1010B3000000007C4242020418204042423E0000ED
:1010C3000000007F4908080808080808081C0000F9
:1010D300000000E74242424242424242423C000098
:1010E300000000E7424222242414141808080000D8
:1010F3000000006B49494949555536222222000018
:10110300000000E7422424181818242442E70000B2
:10111300000000772222141408080808081C0000A5
:101123000000007E2120101008040442423F00000A
:10113300007808080808080808080808080878005C
:101143000000020204040808081010202020404078
:10115300001E1010101010101010101010101E0090
:101163000038440000000000000000000000000000
:10117300000000000000000000000000000000FF6D
:10118300000608000000000000000000000000004E
:10119300000000000000003C4278444242FC000092
:1011A300000000030202021A26424242261A0000ED
:1011B300000000000000003844020202443800002E
:1011C30000000060404040784442424264D800003E
:1011D300000000000000003C427E0202423C00008E
:1011E300000000F08808087E08080808083E000090
:1011F300000000000000007C22221C023C42423C12
:10120300000000030202023A4642424242E7000063
:101213000000000C0C00000E08080808083E00003F
:101223000000003030000038202020202020221E23
:101233000000000302020272120A16122277000053
:101243000000000E0808080808080808083E000007
:10125300000000000000007F9292929292B700007B
:10126300000000000000003B4642424242E700000B
:10127300000000000000003C42424242423C0000A9
:10128300000000000000001B26424242221E02070B
:10129300000000000000007844424242447840E0ED
:1012A30000000000000000774C040404041F000049
:1012B300000000000000007C42023C40423E00006F
:1012C300000000000008083E080808080830000075
:1012D30000000000000000634242424262DC000062
:1012E30000000000000000E7422424140808000066
:1012F30000000000000000EB494955552222000080
:10130300000000000000007624181818246E000066
:1013130000000000000000E7422424141808080716
:10132300000000000000007E22100808447E000038
:1013330000C0202020202010202020202020C000BA
:10134300101010101010101010101010101010109A
:101353000006080808080810080808080808060016
:101363000C32C2000000000000000000000000007A
:10195C00BB010689828A83E0225002E722BBFE0289
:09196C00E32289828A83E49322BC
:10197500EF8DF0A4A8F0CF8CF0A428CE8DF0A42E86
:02198500FE2240
:10198700C5F0F8A3E028F0C5F0F8E58215827002EB
:061997001583E038F02288
:10199D00E88FF0A4CC8BF0A42CFCE98EF0A42CFCE9
:1019AD008AF0EDA42CFCEA8EF0A4CDA8F08BF0A467
:1019BD002DCC3825F0FDE98FF0A42CCD35F0FCEBC6
:1019CD008EF0A4FEA9F0EB8FF0A4CFC5F02ECD398B
:0F19DD00FEE43CFCEAA42DCE35F0FDE43CFC22F8
:1019EC0075F008758200EF2FFFEE33FECD33CDCCB2
:1019FC0033CCC58233C5829BED9AEC99E582984035
:101A0C000CF582EE9BFEED9AFDEC99FC0FD5F0D611
:101A1C00E4CEFBE4CDFAE4CCF9A88222B800C1B93B
:101A2C000059BA002DEC8BF084CFCECDFCE5F0CB79
:101A3C00F97818EF2FFFEE33FEED33FDEC33FCEBB2
:101A4C0033FB10D703994004EB99FB0FD8E5E4F96D
:101A5C00FA227818EF2FFFEE33FEED33FDEC33FC5A
:101A6C00C933C910D7059BE99A4007EC9BFCE99A4E
:101A7C00F90FD8E0E4C9FAE4CCFB2275F010EF2F93
:101A8C00FFEE33FEED33FDCC33CCC833C810D70793
:101A9C009BEC9AE899400AED9BFDEC9AFCE899F8CE
:0E1AAC000FD5F0DAE4CDFBE4CCFAE4C8F92261
:0C1ABA00ECF0A3EDF0A3EEF0A3EFF0229F
:101AC600A8828583F0D083D082121ADD121ADD1225
:101AD6001ADD121ADDE473E493A3C583C5F0C5834A
:101AE600C8C582C8F0A3C583C5F0C583C8C582C86A
:011AF60022CD
:00000001FF
