:03000000021624C1
:0C162400787FE4F6D8FD7581200214D117
:1014D1001206F374FFFFFE121560E4900038F0A3CA
:1014E100F074FF900036F0A3F01206F37F007EF84F
:1014F1001215607FB87E0B1215E97FE07E07121589
:10150100607FB87E0B1215E97F1F7E001215607F88
:08151100B87E0B1215E980D130
:02164800200080
:1015A6008F20A2079295C297D297A2069295C297CC
:1015B600D297A2059295C297D297A2049295C29706
:1015C600D297A2039295C297D297A2029295C297FA
:1015D600D297A2019295C297D297A2009295C297EE
:0315E600D2972277
:04163A00121643FF42
:05163E00D2820215A696
:05160F00E0FEA3E0FF76
:10161400AD07AC06D282ECFF1215A6AF050215A6E3
:05164300C2820215A6A1
:0A163000121643AE04AF05021614B3
:10151900900024EEF0A3EFF07F2A121643900024E6
:10152900E0FF12163EA3E0FF12163EEAFF12163E36
:10153900AF0312163E7F2B121643ECFF12163EAF75
:101549000512163E90002AE0FF12163EA3E0FF1294
:07155900163E7F2C02164331
:1006F300D28020805BE4FDFCFFFE1216307BFF7A84
:10070300167948E4FDFCFFFE12124D900004120F0F
:10071300C700000000E4900008F0FDFCFFFE120F8C
:10072300F8E4900006F0FBFAFDFCFFFE1212E1E490
:10073300FDFCFFFE12143CE4900006F0A3F0FBFA6C
:10074300FDFCFFFE1211A3E4FBFDFCFFFE1208FA01
:10075300D2817F057E001215E9C2817F057E0012DA
:1007630015E9D281D2807F057E001215E9C2807F10
:10077300CB1216437F3912163E7F2C12163EE4FF2E
:1007830012163E7F3412163E7F0212163E7FCF12A0
:10079300163A7FC112163E7F3012163E7FE81216BC
:1007A300437F8512163EFF12163E7F7812163E7F58
:1007B300EA12163A12163E7FED1216437F641216A2
:1007C3003E7F0312163E7F1212163E7F8112163EA3
:1007D3007FF71216437F2012163E7FC01216437F07
:1007E3002312163E7FC11216437F1012163E7FC599
:1007F3001216437F3E12163E7F2812163E7FC71203
:1008030016437F8612163E7F361216437F48121612
:100813003E7F3A1216437F5512163E7FB112163AA7
:100823007F1812163E7FB61216437F0812163E7FBC
:100833008212163E7F2712163E7FF212163A7F2649
:100843001216437F0112163E7FE01216437F0F12EA
:10085300163E7F3112163E7F2B12163E7F0C121668
:100863003E7F0E12163E7F0812163E7F4E12163E34
:100873007FF112163E7F3712163E7F0712163E7F18
:100883001012163E7F0312163E7F0E12163E7F098C
:1008930012163EFF12163E7FE112163A7F0E121613
:1008A3003E7F1412163E7F0312163E7F1112163E30
:1008B3007F0712163E7F3112163E7FC112163E7F0E
:1008C3004812163E7F0812163E7F0F12163E7F0C0B
:1008D30012163E7F3112163E7F3612163E7F0F12DE
:1008E300163E7F111216437F78FE1215E97F2912F7
:0708F30016437F2C0216439F
:02156000AC06D7
:10156200EC900000F0A90790002A7401F0A3743FE8
:10157200F07BEF7A00E4FDFCFFFE121519E4FBFAA2
:10158200900000E0FF12163EAF0112163E0BBB00A8
:10159200010ABA01EBBB40E80DBD00010CED64F09D
:0315A2004C70DAB0
:0115A5002223
:1010D90090002CEEF0A3EFF0900030EBF090002E92
:0510E900ECF0A3EDF0A6
:1010EE0090003374FFF0A37400F0A37403F090002B
:1010FE002CE0FAA3E0FFAE02C006C007241FFBE4FB
:10110E003AFAA3E0FEA3E0241FFFE43E90002AF08B
:10111E00A3EFF0D007D006121519900030E075F04D
:10112E0080A4FF900034E5F08FF0120E88E490005A
:10113E0032F0E4900031F0900031E0FFC39408509B
:10114E003D900033E0FBA3E0FAA3E0F9120E6FFD31
:10115E007C0074017E00A807088005C333CE33CE11
:10116E00D8F9FFEE5CFEEF5D4E6005900036800311
:10117E0090003812160F900031E004F080B9900004
:10118E0034E475F001120E88900032E004F0E0C3F2
:04119E009480409E5B
:0111A200222A
:1013EA00900004E0FEA3E0FF900001E02FFF9000D0
:1013FA0000E03E900006FEE0FCA3E0FD900003E062
:08140A002DFD900002E03CFC06
:10141200AB07AA068D828C83C006C007AE83AF825B
:1014220090002AEEF0A3EFF0D007D0061215199023
:0A1432000036E0FEA3E0FF021614EE
:10143C00AB07AA068D828C83EB24FFFFEA34FFFEF8
:10144C00C006C007E58224FFFDE58334FFFCEB24D6
:10145C0001FBE43AFAAE83AF82EF2401FFE43E9045
:10146C000006F0A3EFF0900036E0FFA3E090000838
:0C147C00CFF0A3EFF0D007D006021369F8
:10136900900000EEF0A3EFF0A3ECF0A3EDF0A3EAF8
:04137900F0A3EBF002
:10137D00C007A3E0FFA3E090002ACFF0A3EFF0D0C9
:10138D0007121519900002E0FFA3E090000ACFF0BC
:10139D00A3EFF0900006E0FEA3E0FFD390000BE07A
:1013AD009F90000AE09E5034900000E0FEA3E0FB09
:1013BD00AA06C3900005E09B900004E09A400D90B2
:1013CD00000812160F0BBB00010A80E690000BE01F
:0C13DD0004F070BF90000AE004F080B73C
:0113E90022E1
:0E0AF100900008EEF0A3EFF0A3ECF0A3EDF000
:100AFF00E4900012F0A3F0A3F0A3F0900008E0FE42
:100B0F00A3E0FFC3EB9FFFEA9E900016F0A3EFF068
:100B1F0090000AE0FAA3E0FBC390000FE09BFE9069
:100B2F00000EE09A900018F0A3CEF0900008E0FFBE
:100B3F00A3E0900020CFF0A3EFF0A3EAF0A3EBF037
:100B4F00900016E0FEA3E0FFD39400EE6480948043
:100B5F00400A90001CE4F0A304F08021EF4E7008CF
:100B6F0090001CF0A3F0801574FF90001CF0A3F010
:100B7F00C3E49FFFE49E900016F0A3EFF0900018DF
:100B8F00E0FEA3E0FFD39400EE64809480400A90CF
:100B9F00001EE4F0A304F08021EF4E700890001EB9
:100BAF00F0A3F0801574FF90001EF0A3F0C3E49F34
:100BBF00FFE49E900018F0A3EFF0900018E0FEA362
:100BCF00E0FF900016E0FCA3E0FDD39FEE6480F8F9
:100BDF00EC64809890001A4007ECF0A3EDF08005CC
:100BEF00EEF0A3EFF0E4900010F0A3F090001BE004
:100BFF002401FF90001AE03400FED3900011E09F13
:100C0F00900010E09E4003020CDB900020E0FEA35A
:100C1F00E0FFA3E0FCA3E0FD121412900016E0FE2B
:100C2F00A3E0FF900013E02FF0900012E03EF09051
:100C3F000018E0FEA3E0FF900015E02FF0900014E5
:100C4F00E03EF090001AE0FEA3E0FF900012E0FCFF
:100C5F00A3E0FDD39FEE6480F8EC6480984020ED14
:100C6F009FFFEC9E900012F0A3EFF090001CE0FEAF
:100C7F00A3E0FF900021E02FF0900020E03EF090E5
:100C8F00001AE0FEA3E0FF900014E0FCA3E0FDD308
:100C9F009FEE6480F8EC6480984020ED9FFFEC9EFF
:100CAF00900014F0A3EFF090001EE0FEA3E0FF9081
:100CBF000023E02FF0900022E03EF0900011E004BE
:0C0CCF00F07006900010E004F0020BFB37
:010CDB0022F6
:1011A300900004EAF0A3EBF0900000EEF0A3EFF060
:1011B300A3ECF0A3EDF0C007A3E0FAA3E0FB9000DB
:1011C30002E0FFA3E090000ECFF0A3EFF0D00712F0
:1011D3000AF1900000E0FAA3E0FBFFAE02C007A310
:1011E300E0FCA3E0FD900006E0FFA3E090000ECF3B
:1011F300F0A3EFF0D007120AF1900006E0FCA3E0A1
:10120300FD900004E0FAA3E0FBA3E0FFA3E090005D
:101213000ECFF0A3EFF0900000E0FEA3E0FF120A70
:10122300F1900004E0FAA3E0FBFFAE02C0079000D8
:1012330002E0FCA3E0FD900006E0FFA3E090000EB7
:0A124300CFF0A3EFF0D007020AF18C
:0E08FA00900000EEF0A3EFF0A3ECF0A3EDF001
:10090800E4A3F0A3F0EBFF7E00A3EEF0A3EFF02545
:10091800E0FFEE33FEC374039F900009F0E49E905D
:100928000008F0900006E0FEA3E0FFD3900005E089
:100938009FEE6480F8900004E06480984003020A07
:10094800F0C3900001E09FFF900000E09EFE900041
:1009580004E0FCA3E0FDC3900003E09DFD900002CD
:10096800E09CFC121412900006E0FEA3E0FF900049
:1009780001E02FFF900000E03EFE900004E0FCA3A1
:10098800E0FDC3900003E09DFD900002E09CFC1296
:100998001412900004E0FEA3E0FFC3900001E09F62
:1009A800FF900000E09E1213FD900006E0FEA3E019
:1009B800FFC3900001E09FFF900000E09EFE9000C2
:1009C80004E0FCA3E0FDC3900003E09DFD9000025D
:1009D800E09CFC121412900004E0FEA3E0FFC39018
:1009E8000001E09FFF900000E09EFE900006E0FC02
:1009F800A3E0FDC3900003E09DFD900002E09CFC95
:100A0800121412900006E0FEA3E0FF900001E02F10
:100A1800FF900000E03E900004121400900004E0F3
:100A2800FEA3E0FF900001E02FFF900000E03EFEF3
:100A3800900006E0FCA3E0FDC3900003E09DFD905C
:100A48000002E09CFC1214121213EA900006E0FE69
:100A5800A3E0FFC3900001E09FFF900000E09EFE2E
:100A6800900004121401900005E004F07006900054
:100A780004E004F0C3900008E0648094805024905F
:100A88000004E0FEA3E07802C333CE33CED8F924C5
:100A980006FFE43EFE900009E02FF0900008E03EDB
:100AA800F0803F900006E0FEA3E0FFC3900005E061
:100AB8009FFF900004E09EFEEF7802C333CE33CE52
:100AC800D8F9240AFFE43EFE900009E02FF09000D8
:100AD80008E03EF0900007E024FFF0900006E034C4
:080AE800FFF01213EA02092BD2
:010AF00022E3
:100CDC0090000CEEF0A3EFF0A3ECF0A3EDF0A3EB7F
:010CEC00F017
:100CED0090000CE0FEA3E0FF900014EEF0A3EFF0F7
:100CFD00900036E0FDA3E0900016CDF0A3EDF0D30B
:100D0D00EF94E0EE94004003020E6E90000EE0FCB6
:100D1D00A3E0FD9430EC94014003020E6E900010A0
:100D2D00E024E0F090000CE0FAA3E0FFAE02C00674
:100D3D00C0072407FBE43AFAA3E0FEA3E0240FFF6B
:100D4D00E43E90002AF0A3EFF0D007D0061215195B
:100D5D00900011E06003020DF6F9900010E075F0BF
:100D6D0010A4FFE97C002FFFEC35F0FE74032FF586
:100D7D008274013EF583E493900012F0E4A3F090A9
:100D8D000012E030E0059000168003900038E0FF7F
:100D9D00A3E0900036CFF0A3EFF090003612160FBF
:100DAD00900012E0C313F090000DE004F070069077
:100DBD00000CE004F0900013E004F0E0C394084050
:100DCD00BE900014E0FFA3E090000CCFF0A3EFF075
:100DDD0090000FE004F0700690000EE004F009E9B9
:100DED0064106003020D678069E4F9900010E075EE
:100DFD00F010A4FFE97C002FFFEC35F0FE74032FFB
:100E0D00F58274013EF583E493900012F0E4A3F0B3
:100E1D00900013E0FFC394085033900012E030E0CF
:100E2D001F90000DE02FFF90000CE03400FEE9FD57
:100E3D0090000FE02DFD90000EE03400FC12141216
:100E4D00900012E0C313F0A3E004F080C309E9B4ED
:100E5D001099900016E0FFA3E0900036CFF0A3EFBD
:010E6D00F094
:010E6E002261
:0814880090000CEFF0A3EDF061
:10149000A3120FC70000000190000DE0FF14F0EF51
:1014A0006020A3E0F8A3E0F9A3E0FAA3E0FB90003A
:1014B0000CE0FFE4FCFDFE120E9E90000E120FBB2E
:1014C00080D690000EE0FCA3E0FDA3E0FEA3E0FFC9
:0114D00022F9
:0E0FF800900000EEF0A3EFF0A3ECF0A3EDF0FC
:10100600E490000BF0900004A3A3E0FEA3E0FFE44D
:10101600FCFD900004120FBBE4900009F09000085C
:10102600E0FFA3E0FEC39F40030210D8C3EF9E1467
:10103600FD7F0A121488A804A905AA06AB0790002A
:1010460004E0FCA3E0FDA3E0FEA3E0FF120F29E409
:101056007B0AFAF9F8120F2990000AEBF0A3E07068
:101066003B900008E014FFA3E0FEC39F502EA3E0D0
:101076007024EE75F008A4FF900001E02FFF9000A9
:1010860000E035F0FE900002E0FCA3E0FDE49000F5
:1010960011F07B20803090000B7401F0900009E085
:1010A60075F008A4FF900001E02FFF900000E035E6
:1010B600F0FE900002E0FCA3E0FD90000AE0243080
:1010C600FBE4900011F0120CDC900009E004F00241
:0210D6001023E5
:0110D80022F5
:1012E100900000EEF0A3EFF0A3ECF0A3EDF0A3EA81
:0412F100F0A3EBF08B
:1012F500E4900007F0900006E0F9A3E0FFC39950E1
:1013050062C3E99F14FD7F0A121488A804A905AADF
:1013150006AB07900004E0FEA3E0FFE4FCFD120F1E
:1013250029E47B0AFAF9F8120F29AF03900008EFB8
:10133500F0900007E075F008A4FF900001E02FFF92
:10134500900000E035F0FE900002E0FCA3E0FDEB2C
:101355002430FBE4900011F0120CDC900007E0044F
:03136500F0809283
:011368002262
:10124D00900000EEF0A3EFF0A3ECF0A3EDF0A3EB14
:10125D00F0A3EAF0A3E9F0900004E0FBA3E0FAA309
:10126D00E0F9120E6FFB606BD3900001E094E090FB
:10127D000000E094004012E4F0A3F0900003E0249D
:10128D0010F0900002E03400F0D3900003E09430B1
:10129D00900002E09401400BE4900000F0A3F0A355
:1012AD00F0A3F0900000E0FEA3E0FFA3E0FCA3E0BC
:1012BD00FDE4900011F0120CDC900001E02408F028
:1012CD00900000E03400F0900005E475F001120E7E
:0412DD00888084225F
:1015E900E4FDFCC3ED9FEE6480F8EC64809850152F
:1015F900E4FBFA0BBB00010ABA03F8BBE8F50DBD21
:0516090000010C80DE71
:01160E0022B9
:1000030000000000000000000000800000FEFF016F
:1000130000FEFF010006C0000006C0000006C0008D
:1000230000FEFF000006C0000006C0000006C0007E
:1000330000FEFF000006C0000006C0000002000032
:1000430030300C1CF07FFC3F30300C1C30300C1C6B
:1000530030300C1C30300C1CF03FFC1F30300C1CBB
:1000630030300C1C30300C1C30300C1CF03FFC1FAB
:10007300F03FFC1F30300C1C3010040C000000005B
:100083000000000000000000C0000808C0F1FF1FCE
:10009300C0F0FF1FC0484C1CC4DCCC1DCCDC8D1D44
:1000A300DC8E8D1DD8060E1FF8C3EF1DF8F1EC1C76
:1000B300D0601D1CC01C770CFE9FE7003483E30C4B
:1000C30030C3FF1F30C3610030E3610030E36106DA
:1000D30030F3FF0F30DB610030FB610438DB610E6E
:1000E30018CFFF0F18C7610098C761000CC36138B0
:1000F30004C2FF3F06C0010002C00100000000006F
:1001030000000000000000000000000000000000EC
:100113000000000808080808080800001818000074
:1001230000486C24120000000000000000000000E2
:100133000000002424247F1212127F1212120000E6
:100143000000081C2A2A0A0C1828282A2A1C080836
:1001530000000022251515152A5854545422000076
:100163000000000C1212120A76252911916E00006C
:100173000006060403000000000000000000000069
:10018300004020101008080808080810102040003C
:1001930000020408081010101010100808040200D0
:1001A3000000000008086B1C1C6B0808000000001E
:1001B30000000000080808087F080808080000007D
:1001C3000000000000000000000000000606040319
:1001D3000000000000000000FE000000000000001E
:1001E3000000000000000000000000000606000000
:1001F3000000804040202010100808040402020080
:1002030000000018244242424242424224180000A5
:10021300000000080E08080808080808083E000047
:100223000000003C4242422020100804427E0000AD
:100233000000003C4242201820404042221C0000A3
:10024300000000203028242422227E202078000071
:100253000000007E0202021A26404042221C0000D7
:10026300000000382402021A2642424224180000E9
:100273000000007E22221010080808080808000069
:100283000000003C4242422418244242423C000007
:10029300000000182442424264584040241C0000DD
:1002A30000000000000018180000000018180000EB
:1002B300000000000000000800000000000808041F
:1002C3000000004020100804020408102040000031
:1002D3000000000000007F0000007F00000000001D
:1002E300000000020408102040201008040200004F
:1002F3000000003C42424640201010001818000045
:100303000000001C225A555555552D42221C000051
:100313000000000808181414243C224242E700009D
:100323000000001F2222221E22424242221F0000FE
:100333000000007C4242010101010142221C000035
:100343000000001F2242424242424242221F00005A
:100353000000003F4212121E12120242423F0000EE
:100363000000003F4212121E121202020207000096
:100373000000003C2222010101712122221C000005
:10038300000000E7424242427E42424242E700000E
:100393000000003E0808080808080808083E000096
:1003A3000000007C10101010101010101010110F0E
:1003B3000000007722120A0E0A121222227700008E
:1003C300000000070202020202020202427F000052
:1003D30000000077363636362A2A2A2A2A6B00008E
:1003E300000000E346464A4A525252626247000006
:1003F3000000001C2241414141414141221C0000B7
:100403000000003F424242423E0202020207000055
:100413000000001C2241414141414D53321C600008
:100423000000003F4242423E1212222242C7000015
:100433000000007C4242020418204042423E000079
:100443000000007F4908080808080808081C000085
:10045300000000E74242424242424242423C000024
:10046300000000E742422224241414180808000064
:100473000000006B494949495555362222220000A4
:10048300000000E7422424181818242442E700003F
:10049300000000772222141408080808081C000032
:1004A3000000007E2120101008040442423F000097
:1004B30000780808080808080808080808087800E9
:1004C3000000020204040808081010202020404005
:1004D300001E1010101010101010101010101E001D
:1004E300003844000000000000000000000000008D
:1004F300000000000000000000000000000000FFFA
:1005030000060800000000000000000000000000DA
:10051300000000000000003C4278444242FC00001E
:10052300000000030202021A26424242261A000079
:1005330000000000000000384402020244380000BA
:1005430000000060404040784442424264D80000CA
:10055300000000000000003C427E0202423C00001A
:10056300000000F08808087E08080808083E00001C
:10057300000000000000007C22221C023C42423C9E
:10058300000000030202023A4642424242E70000F0
:100593000000000C0C00000E08080808083E0000CC
:1005A3000000003030000038202020202020221EB0
:1005B3000000000302020272120A161222770000E0
:1005C3000000000E0808080808080808083E000094
:1005D300000000000000007F9292929292B7000008
:1005E300000000000000003B4642424242E7000098
:1005F300000000000000003C42424242423C000036
:10060300000000000000001B26424242221E020797
:10061300000000000000007844424242447840E079
:1006230000000000000000774C040404041F0000D5
:10063300000000000000007C42023C40423E0000FB
:10064300000000000008083E080808080830000001
:1006530000000000000000634242424262DC0000EE
:1006630000000000000000E74224241408080000F2
:1006730000000000000000EB49495555222200000C
:10068300000000000000007624181818246E0000F3
:1006930000000000000000E74224241418080807A3
:1006A300000000000000007E22100808447E0000C5
:1006B30000C0202020202010202020202020C00047
:1006C3001010101010101010101010101010101027
:1006D30000060808080808100808080808080600A3
:1006E3000C32C20000000000000000000000000007
:100E6F00BB010689828A83E0225002E722BBFE0281
:090E7F00E32289828A83E49322B4
:100E8800C5F0F8A3E028F0C5F0F8E58215827002F5
:060E98001583E038F02292
:100E9E00E88FF0A4CC8BF0A42CFCE98EF0A42CFCF3
:100EAE008AF0EDA42CFCEA8EF0A4CDA8F08BF0A471
:100EBE002DCC3825F0FDE98FF0A42CCD35F0FCEBD0
:100ECE008EF0A4FEA9F0EB8FF0A4CFC5F02ECD3995
:0F0EDE00FEE43CFCEAA42DCE35F0FDE43CFC2202
:100EED0075F008758200EF2FFFEE33FECD33CDCCBC
:100EFD0033CCC58233C5829BED9AEC99E58298403F
:100F0D000CF582EE9BFEED9AFDEC99FC0FD5F0D61B
:100F1D00E4CEFBE4CDFAE4CCF9A88222B800C1B945
:100F2D000059BA002DEC8BF084CFCECDFCE5F0CB83
:100F3D00F97818EF2FFFEE33FEED33FDEC33FCEBBC
:100F4D0033FB10D703994004EB99FB0FD8E5E4F977
:100F5D00FA227818EF2FFFEE33FEED33FDEC33FC64
:100F6D00C933C910D7059BE99A4007EC9BFCE99A58
:100F7D00F90FD8E0E4C9FAE4CCFB2275F010EF2F9D
:100F8D00FFEE33FEED33FDCC33CCC833C810D7079D
:100F9D009BEC9AE899400AED9BFDEC9AFCE899F8D8
:0E0FAD000FD5F0DAE4CDFBE4CCFAE4C8F9226B
:0C0FBB00ECF0A3EDF0A3EEF0A3EFF022A9
:100FC700A8828583F0D083D082120FDE120FDE1243
:100FD7000FDE120FDEE473E493A3C583C5F0C58368
:100FE700C8C582C8F0A3C583C5F0C583C8C582C874
:010FF70022D7
:00000001FF
